{
  "contractName": "ChimpToken",
  "abi": [
    {
      "inputs": [],
      "stateMutability": "nonpayable",
      "type": "constructor"
    },
    {
      "anonymous": false,
      "inputs": [
        {
          "indexed": true,
          "internalType": "address",
          "name": "owner",
          "type": "address"
        },
        {
          "indexed": true,
          "internalType": "address",
          "name": "spender",
          "type": "address"
        },
        {
          "indexed": false,
          "internalType": "uint256",
          "name": "value",
          "type": "uint256"
        }
      ],
      "name": "Approval",
      "type": "event"
    },
    {
      "anonymous": false,
      "inputs": [
        {
          "indexed": true,
          "internalType": "address",
          "name": "from",
          "type": "address"
        },
        {
          "indexed": true,
          "internalType": "address",
          "name": "to",
          "type": "address"
        },
        {
          "indexed": false,
          "internalType": "uint256",
          "name": "value",
          "type": "uint256"
        }
      ],
      "name": "Transfer",
      "type": "event"
    },
    {
      "inputs": [
        {
          "internalType": "address",
          "name": "owner",
          "type": "address"
        },
        {
          "internalType": "address",
          "name": "spender",
          "type": "address"
        }
      ],
      "name": "allowance",
      "outputs": [
        {
          "internalType": "uint256",
          "name": "",
          "type": "uint256"
        }
      ],
      "stateMutability": "view",
      "type": "function"
    },
    {
      "inputs": [
        {
          "internalType": "address",
          "name": "spender",
          "type": "address"
        },
        {
          "internalType": "uint256",
          "name": "amount",
          "type": "uint256"
        }
      ],
      "name": "approve",
      "outputs": [
        {
          "internalType": "bool",
          "name": "",
          "type": "bool"
        }
      ],
      "stateMutability": "nonpayable",
      "type": "function"
    },
    {
      "inputs": [
        {
          "internalType": "address",
          "name": "account",
          "type": "address"
        }
      ],
      "name": "balanceOf",
      "outputs": [
        {
          "internalType": "uint256",
          "name": "",
          "type": "uint256"
        }
      ],
      "stateMutability": "view",
      "type": "function"
    },
    {
      "inputs": [],
      "name": "decimals",
      "outputs": [
        {
          "internalType": "uint8",
          "name": "",
          "type": "uint8"
        }
      ],
      "stateMutability": "view",
      "type": "function"
    },
    {
      "inputs": [
        {
          "internalType": "address",
          "name": "spender",
          "type": "address"
        },
        {
          "internalType": "uint256",
          "name": "subtractedValue",
          "type": "uint256"
        }
      ],
      "name": "decreaseAllowance",
      "outputs": [
        {
          "internalType": "bool",
          "name": "",
          "type": "bool"
        }
      ],
      "stateMutability": "nonpayable",
      "type": "function"
    },
    {
      "inputs": [
        {
          "internalType": "address",
          "name": "spender",
          "type": "address"
        },
        {
          "internalType": "uint256",
          "name": "addedValue",
          "type": "uint256"
        }
      ],
      "name": "increaseAllowance",
      "outputs": [
        {
          "internalType": "bool",
          "name": "",
          "type": "bool"
        }
      ],
      "stateMutability": "nonpayable",
      "type": "function"
    },
    {
      "inputs": [],
      "name": "liquidator",
      "outputs": [
        {
          "internalType": "address",
          "name": "",
          "type": "address"
        }
      ],
      "stateMutability": "view",
      "type": "function"
    },
    {
      "inputs": [],
      "name": "name",
      "outputs": [
        {
          "internalType": "string",
          "name": "",
          "type": "string"
        }
      ],
      "stateMutability": "view",
      "type": "function"
    },
    {
      "inputs": [],
      "name": "symbol",
      "outputs": [
        {
          "internalType": "string",
          "name": "",
          "type": "string"
        }
      ],
      "stateMutability": "view",
      "type": "function"
    },
    {
      "inputs": [],
      "name": "totalSupply",
      "outputs": [
        {
          "internalType": "uint256",
          "name": "",
          "type": "uint256"
        }
      ],
      "stateMutability": "view",
      "type": "function"
    },
    {
      "inputs": [
        {
          "internalType": "address",
          "name": "recipient",
          "type": "address"
        },
        {
          "internalType": "uint256",
          "name": "amount",
          "type": "uint256"
        }
      ],
      "name": "transfer",
      "outputs": [
        {
          "internalType": "bool",
          "name": "",
          "type": "bool"
        }
      ],
      "stateMutability": "nonpayable",
      "type": "function"
    },
    {
      "inputs": [
        {
          "internalType": "address",
          "name": "sender",
          "type": "address"
        },
        {
          "internalType": "address",
          "name": "recipient",
          "type": "address"
        },
        {
          "internalType": "uint256",
          "name": "amount",
          "type": "uint256"
        }
      ],
      "name": "transferFrom",
      "outputs": [
        {
          "internalType": "bool",
          "name": "",
          "type": "bool"
        }
      ],
      "stateMutability": "nonpayable",
      "type": "function"
    },
    {
      "inputs": [
        {
          "internalType": "address",
          "name": "_liquidator",
          "type": "address"
        }
      ],
      "name": "setLiquidator",
      "outputs": [],
      "stateMutability": "nonpayable",
      "type": "function"
    },
    {
      "inputs": [
        {
          "internalType": "address",
          "name": "to",
          "type": "address"
        },
        {
          "internalType": "uint256",
          "name": "amount",
          "type": "uint256"
        }
      ],
      "name": "mint",
      "outputs": [],
      "stateMutability": "nonpayable",
      "type": "function"
    }
  ],
  "bytecode": "0x60806040523480156200001157600080fd5b506040518060400160405280600b81526020016a21b434b6b8102a37b5b2b760a91b8152506040518060400160405280600381526020016243544b60e81b81525081600390805190602001906200006a9291906200009b565b508051620000809060049060208401906200009b565b5050600580546001600160a01b03191633179055506200017e565b828054620000a99062000141565b90600052602060002090601f016020900481019282620000cd576000855562000118565b82601f10620000e857805160ff191683800117855562000118565b8280016001018555821562000118579182015b8281111562000118578251825591602001919060010190620000fb565b50620001269291506200012a565b5090565b5b808211156200012657600081556001016200012b565b6002810460018216806200015657607f821691505b602082108114156200017857634e487b7160e01b600052602260045260246000fd5b50919050565b610c3c806200018e6000396000f3fe608060405234801561001057600080fd5b50600436106100ea5760003560e01c80634046ebae1161008c57806395d89b411161006657806395d89b41146101cd578063a457c2d7146101d5578063a9059cbb146101e8578063dd62ed3e146101fb576100ea565b80634046ebae1461019257806340c10f19146101a757806370a08231146101ba576100ea565b806318160ddd116100c857806318160ddd1461014257806323b872dd14610157578063313ce5671461016a578063395093511461017f576100ea565b806301c76f81146100ef57806306fdde0314610104578063095ea7b314610122575b600080fd5b6101026100fd3660046107e1565b61020e565b005b61010c610256565b60405161011991906108b7565b60405180910390f35b61013561013036600461086f565b6102e8565b60405161011991906108ac565b61014a610305565b6040516101199190610b6f565b610135610165366004610834565b61030b565b6101726103a2565b6040516101199190610b78565b61013561018d36600461086f565b6103a7565b61019a6103f6565b6040516101199190610898565b6101026101b536600461086f565b610405565b61014a6101c83660046107e1565b61043d565b61010c61045c565b6101356101e336600461086f565b61046b565b6101356101f636600461086f565b6104e6565b61014a610209366004610802565b6104fa565b6005546001600160a01b031633146102415760405162461bcd60e51b8152600401610238906109fe565b60405180910390fd5b50600680546001600160a01b03191633179055565b60606003805461026590610bb5565b80601f016020809104026020016040519081016040528092919081815260200182805461029190610bb5565b80156102de5780601f106102b3576101008083540402835291602001916102de565b820191906000526020600020905b8154815290600101906020018083116102c157829003601f168201915b5050505050905090565b60006102fc6102f5610525565b8484610529565b50600192915050565b60025490565b60006103188484846105dd565b6001600160a01b038416600090815260016020526040812081610339610525565b6001600160a01b03166001600160a01b031681526020019081526020016000205490508281101561037c5760405162461bcd60e51b815260040161023890610a22565b61039785610388610525565b6103928685610b9e565b610529565b506001949350505050565b601290565b60006102fc6103b4610525565b8484600160006103c2610525565b6001600160a01b03908116825260208083019390935260409182016000908120918b16815292529020546103929190610b86565b6006546001600160a01b031681565b6006546001600160a01b0316331461042f5760405162461bcd60e51b81526004016102389061098f565b6104398282610705565b5050565b6001600160a01b0381166000908152602081905260409020545b919050565b60606004805461026590610bb5565b6000806001600061047a610525565b6001600160a01b03908116825260208083019390935260409182016000908120918816815292529020549050828110156104c65760405162461bcd60e51b815260040161023890610af3565b6104dc6104d1610525565b856103928685610b9e565b5060019392505050565b60006102fc6104f3610525565b84846105dd565b6001600160a01b03918216600090815260016020908152604080832093909416825291909152205490565b3390565b6001600160a01b03831661054f5760405162461bcd60e51b815260040161023890610aaf565b6001600160a01b0382166105755760405162461bcd60e51b81526004016102389061094d565b6001600160a01b0380841660008181526001602090815260408083209487168084529490915290819020849055517f8c5be1e5ebec7d5bd14f71427d1e84f3dd0314c0f7b2291e5b200ac8c7c3b925906105d0908590610b6f565b60405180910390a3505050565b6001600160a01b0383166106035760405162461bcd60e51b815260040161023890610a6a565b6001600160a01b0382166106295760405162461bcd60e51b81526004016102389061090a565b6106348383836107c5565b6001600160a01b0383166000908152602081905260409020548181101561066d5760405162461bcd60e51b8152600401610238906109b8565b6106778282610b9e565b6001600160a01b0380861660009081526020819052604080822093909355908516815290812080548492906106ad908490610b86565b92505081905550826001600160a01b0316846001600160a01b03167fddf252ad1be2c89b69c2b068fc378daa952ba7f163c4a11628f55a4df523b3ef846040516106f79190610b6f565b60405180910390a350505050565b6001600160a01b03821661072b5760405162461bcd60e51b815260040161023890610b38565b610737600083836107c5565b80600260008282546107499190610b86565b90915550506001600160a01b03821660009081526020819052604081208054839290610776908490610b86565b90915550506040516001600160a01b038316906000907fddf252ad1be2c89b69c2b068fc378daa952ba7f163c4a11628f55a4df523b3ef906107b9908590610b6f565b60405180910390a35050565b505050565b80356001600160a01b038116811461045757600080fd5b6000602082840312156107f2578081fd5b6107fb826107ca565b9392505050565b60008060408385031215610814578081fd5b61081d836107ca565b915061082b602084016107ca565b90509250929050565b600080600060608486031215610848578081fd5b610851846107ca565b925061085f602085016107ca565b9150604084013590509250925092565b60008060408385031215610881578182fd5b61088a836107ca565b946020939093013593505050565b6001600160a01b0391909116815260200190565b901515815260200190565b6000602080835283518082850152825b818110156108e3578581018301518582016040015282016108c7565b818111156108f45783604083870101525b50601f01601f1916929092016040019392505050565b60208082526023908201527f45524332303a207472616e7366657220746f20746865207a65726f206164647260408201526265737360e81b606082015260800190565b60208082526022908201527f45524332303a20617070726f766520746f20746865207a65726f206164647265604082015261737360f01b606082015260800190565b6020808252600f908201526e37b7363c903634b8bab4b230ba37b960891b604082015260600190565b60208082526026908201527f45524332303a207472616e7366657220616d6f756e7420657863656564732062604082015265616c616e636560d01b606082015260800190565b6020808252600a908201526937b7363c9030b236b4b760b11b604082015260600190565b60208082526028908201527f45524332303a207472616e7366657220616d6f756e74206578636565647320616040820152676c6c6f77616e636560c01b606082015260800190565b60208082526025908201527f45524332303a207472616e736665722066726f6d20746865207a65726f206164604082015264647265737360d81b606082015260800190565b60208082526024908201527f45524332303a20617070726f76652066726f6d20746865207a65726f206164646040820152637265737360e01b606082015260800190565b60208082526025908201527f45524332303a2064656372656173656420616c6c6f77616e63652062656c6f77604082015264207a65726f60d81b606082015260800190565b6020808252601f908201527f45524332303a206d696e7420746f20746865207a65726f206164647265737300604082015260600190565b90815260200190565b60ff91909116815260200190565b60008219821115610b9957610b99610bf0565b500190565b600082821015610bb057610bb0610bf0565b500390565b600281046001821680610bc957607f821691505b60208210811415610bea57634e487b7160e01b600052602260045260246000fd5b50919050565b634e487b7160e01b600052601160045260246000fdfea2646970667358221220c117e3f07e1e124c29583447534b0d187fe5187ae6bda7c3073a0338bad9effe64736f6c63430008000033",
  "immutableReferences": {},
  "source": "pragma solidity 0.8.0;\r\nimport '@openzeppelin/contracts/token/ERC20/ERC20.sol';\r\ncontract ChimpToken is ERC20 {\r\n    address admin;\r\n    address public liquidator;\r\n    constructor() ERC20('Chimp Token', 'CTK') public{\r\n      admin =msg.sender;\r\n    }\r\n\r\n    function setLiquidator(address _liquidator) external {\r\n      require(msg.sender == admin, 'only admin');\r\n      liquidator = msg.sender;\r\n    }\r\n\r\n    function mint(address to, uint amount) external {\r\n      require(msg.sender == liquidator, 'only liquidator');\r\n      _mint(to, amount);\r\n    }\r\n}\r\n",
  "sourcePath": "C:/Users/jjrab/OneDrive/Desktop/Dappdev/uniswap-fork/migrator/contracts/ChimpToken.sol",
  "compiler": {
    "name": "solc",
    "version": "0.8.0+commit.c7dfd78e.Emscripten.clang"
  },
  "schemaVersion": "3.3.4",
  "updatedAt": "2021-03-27T14:33:19.405Z",
  "devdoc": {
    "kind": "dev",
    "methods": {
      "allowance(address,address)": {
        "details": "See {IERC20-allowance}."
      },
      "approve(address,uint256)": {
        "details": "See {IERC20-approve}. Requirements: - `spender` cannot be the zero address."
      },
      "balanceOf(address)": {
        "details": "See {IERC20-balanceOf}."
      },
      "decimals()": {
        "details": "Returns the number of decimals used to get its user representation. For example, if `decimals` equals `2`, a balance of `505` tokens should be displayed to a user as `5,05` (`505 / 10 ** 2`). Tokens usually opt for a value of 18, imitating the relationship between Ether and Wei. This is the value {ERC20} uses, unless this function is overloaded; NOTE: This information is only used for _display_ purposes: it in no way affects any of the arithmetic of the contract, including {IERC20-balanceOf} and {IERC20-transfer}."
      },
      "decreaseAllowance(address,uint256)": {
        "details": "Atomically decreases the allowance granted to `spender` by the caller. This is an alternative to {approve} that can be used as a mitigation for problems described in {IERC20-approve}. Emits an {Approval} event indicating the updated allowance. Requirements: - `spender` cannot be the zero address. - `spender` must have allowance for the caller of at least `subtractedValue`."
      },
      "increaseAllowance(address,uint256)": {
        "details": "Atomically increases the allowance granted to `spender` by the caller. This is an alternative to {approve} that can be used as a mitigation for problems described in {IERC20-approve}. Emits an {Approval} event indicating the updated allowance. Requirements: - `spender` cannot be the zero address."
      },
      "name()": {
        "details": "Returns the name of the token."
      },
      "symbol()": {
        "details": "Returns the symbol of the token, usually a shorter version of the name."
      },
      "totalSupply()": {
        "details": "See {IERC20-totalSupply}."
      },
      "transfer(address,uint256)": {
        "details": "See {IERC20-transfer}. Requirements: - `recipient` cannot be the zero address. - the caller must have a balance of at least `amount`."
      },
      "transferFrom(address,address,uint256)": {
        "details": "See {IERC20-transferFrom}. Emits an {Approval} event indicating the updated allowance. This is not required by the EIP. See the note at the beginning of {ERC20}. Requirements: - `sender` and `recipient` cannot be the zero address. - `sender` must have a balance of at least `amount`. - the caller must have allowance for ``sender``'s tokens of at least `amount`."
      }
    },
    "version": 1
  },
  "userdoc": {
    "kind": "user",
    "methods": {},
    "version": 1
  }
}