{
  "contractName": "LiquidityMigrator",
  "abi": [
    {
      "inputs": [
        {
          "internalType": "address",
          "name": "_router",
          "type": "address"
        },
        {
          "internalType": "address",
          "name": "_pair",
          "type": "address"
        },
        {
          "internalType": "address",
          "name": "_routerFork",
          "type": "address"
        },
        {
          "internalType": "address",
          "name": "_pairFork",
          "type": "address"
        },
        {
          "internalType": "address",
          "name": "_chimpToken",
          "type": "address"
        }
      ],
      "stateMutability": "nonpayable",
      "type": "constructor"
    },
    {
      "inputs": [],
      "name": "admin",
      "outputs": [
        {
          "internalType": "address",
          "name": "",
          "type": "address"
        }
      ],
      "stateMutability": "view",
      "type": "function"
    },
    {
      "inputs": [],
      "name": "chimpToken",
      "outputs": [
        {
          "internalType": "contract ChimpToken",
          "name": "",
          "type": "address"
        }
      ],
      "stateMutability": "view",
      "type": "function"
    },
    {
      "inputs": [],
      "name": "migrationDone",
      "outputs": [
        {
          "internalType": "bool",
          "name": "",
          "type": "bool"
        }
      ],
      "stateMutability": "view",
      "type": "function"
    },
    {
      "inputs": [],
      "name": "pair",
      "outputs": [
        {
          "internalType": "contract IUniswapV2Pair",
          "name": "",
          "type": "address"
        }
      ],
      "stateMutability": "view",
      "type": "function"
    },
    {
      "inputs": [],
      "name": "pairFork",
      "outputs": [
        {
          "internalType": "contract IUniswapV2Pair",
          "name": "",
          "type": "address"
        }
      ],
      "stateMutability": "view",
      "type": "function"
    },
    {
      "inputs": [],
      "name": "router",
      "outputs": [
        {
          "internalType": "contract IUniswapV2Router02",
          "name": "",
          "type": "address"
        }
      ],
      "stateMutability": "view",
      "type": "function"
    },
    {
      "inputs": [],
      "name": "routerFork",
      "outputs": [
        {
          "internalType": "contract IUniswapV2Router02",
          "name": "",
          "type": "address"
        }
      ],
      "stateMutability": "view",
      "type": "function"
    },
    {
      "inputs": [
        {
          "internalType": "address",
          "name": "",
          "type": "address"
        }
      ],
      "name": "unclaimedBalances",
      "outputs": [
        {
          "internalType": "uint256",
          "name": "",
          "type": "uint256"
        }
      ],
      "stateMutability": "view",
      "type": "function"
    },
    {
      "inputs": [
        {
          "internalType": "uint256",
          "name": "amount",
          "type": "uint256"
        }
      ],
      "name": "deposit",
      "outputs": [],
      "stateMutability": "nonpayable",
      "type": "function"
    },
    {
      "inputs": [],
      "name": "migrate",
      "outputs": [],
      "stateMutability": "nonpayable",
      "type": "function"
    },
    {
      "inputs": [],
      "name": "claimLptokens",
      "outputs": [],
      "stateMutability": "nonpayable",
      "type": "function"
    }
  ],
  "bytecode": "0x608060405234801561001057600080fd5b50604051610b85380380610b8583398101604081905261002f916100ba565b600080546001600160a01b038082166001600160a01b03199283161790925560018054821696831696909617909555600280548616948216949094179093556003805485169284169290921790915560048054841691909216179055600580543392169190911790555061011e565b80516001600160a01b03811681146100b557600080fd5b919050565b600080600080600060a086880312156100d1578081fd5b6100da8661009e565b94506100e86020870161009e565b93506100f66040870161009e565b92506101046060870161009e565b91506101126080870161009e565b90509295509295909350565b610a588061012d6000396000f3fe608060405234801561001057600080fd5b50600436106100a95760003560e01c80638fd3ab80116100715780638fd3ab8014610113578063a8aa1b311461011b578063b6b55f2514610123578063f272ff3214610136578063f851a4401461013e578063f887ea4014610146576100a9565b80630d81a570146100ae57806352c7262e146100cc57806359201402146100d6578063766faf36146100eb5780638bf6afaf146100f3575b600080fd5b6100b661014e565b6040516100c39190610972565b60405180910390f35b6100d4610157565b005b6100de610231565b6040516100c391906108bc565b6100de610240565b6101066101013660046107dd565b61024f565b6040516100c39190610a01565b6100d4610261565b6100de61077f565b6100d461013136600461083c565b61078e565b6100de6107b0565b6100de6107bf565b6100de6107ce565b60075460ff1681565b33600052600660205261016e565b60405180910390fd5b60075460ff1615156001146101955760405162461bcd60e51b8152600401610165906109d1565b336000818152600660205260408082208054929055600354905163a9059cbb60e01b815291926001600160a01b039091169163a9059cbb916101db918590600401610959565b602060405180830381600087803b1580156101f557600080fd5b505af1158015610209573d6000803e3d6000fd5b505050506040513d601f19601f8201168201806040525081019061022d919061081c565b5050565b6003546001600160a01b031681565b6002546001600160a01b031681565b60066020526000908152604090205481565b6005546001600160a01b0316331461028b5760405162461bcd60e51b81526004016101659061097d565b60075460ff16156102ae5760405162461bcd60e51b8152600401610165906109a1565b60015460408051630dfe168160e01b815290516000926001600160a01b031691630dfe1681916004808301926020929190829003018186803b1580156102f357600080fd5b505afa158015610307573d6000803e3d6000fd5b505050506040513d601f19601f8201168201806040525081019061032b9190610800565b90506000600160009054906101000a90046001600160a01b03166001600160a01b031663d21220a76040518163ffffffff1660e01b815260040160206040518083038186803b15801561037d57600080fd5b505afa158015610391573d6000803e3d6000fd5b505050506040513d601f19601f820116820180604052508101906103b59190610800565b6001546040516370a0823160e01b81529192506000916001600160a01b03909116906370a08231906103eb9030906004016108bc565b60206040518083038186803b15801561040357600080fd5b505afa158015610417573d6000803e3d6000fd5b505050506040513d601f19601f8201168201806040525081019061043b9190610854565b60008054604051635d5155ef60e11b81529293506001600160a01b03169163baa2abde9161047891879187918791908190309042906004016108d0565b6040805180830381600087803b15801561049157600080fd5b505af11580156104a5573d6000803e3d6000fd5b505050506040513d601f19601f820116820180604052508101906104c9919061086c565b50506040516370a0823160e01b81526000906001600160a01b038516906370a08231906104fa9030906004016108bc565b60206040518083038186803b15801561051257600080fd5b505afa158015610526573d6000803e3d6000fd5b505050506040513d601f19601f8201168201806040525081019061054a9190610854565b90506000836001600160a01b03166370a08231306040518263ffffffff1660e01b815260040161057a91906108bc565b60206040518083038186803b15801561059257600080fd5b505afa1580156105a6573d6000803e3d6000fd5b505050506040513d601f19601f820116820180604052508101906105ca9190610854565b60025460405163095ea7b360e01b81529192506001600160a01b038088169263095ea7b3926105ff9216908690600401610959565b602060405180830381600087803b15801561061957600080fd5b505af115801561062d573d6000803e3d6000fd5b505050506040513d601f19601f82011682018060405250810190610651919061081c565b5060025460405163095ea7b360e01b81526001600160a01b038681169263095ea7b39261068692909116908590600401610959565b602060405180830381600087803b1580156106a057600080fd5b505af11580156106b4573d6000803e3d6000fd5b505050506040513d601f19601f820116820180604052508101906106d8919061081c565b5060025460405162e8e33760e81b81526001600160a01b039091169063e8e33700906107169088908890879087908290829030904290600401610910565b606060405180830381600087803b15801561073057600080fd5b505af1158015610744573d6000803e3d6000fd5b505050506040513d601f19601f82011682018060405250810190610768919061088f565b50506007805460ff19166001179055505050505050565b6001546001600160a01b031681565b6007805460ff1916905560405162461bcd60e51b8152600401610165906109a1565b6004546001600160a01b031681565b6005546001600160a01b031681565b6000546001600160a01b031681565b6000602082840312156107ee578081fd5b81356107f981610a0a565b9392505050565b600060208284031215610811578081fd5b81516107f981610a0a565b60006020828403121561082d578081fd5b815180151581146107f9578182fd5b60006020828403121561084d578081fd5b5035919050565b600060208284031215610865578081fd5b5051919050565b6000806040838503121561087e578081fd5b505080516020909101519092909150565b6000806000606084860312156108a3578081fd5b8351925060208401519150604084015190509250925092565b6001600160a01b0391909116815260200190565b6001600160a01b039788168152958716602087015260408601949094526060850192909252608084015290921660a082015260c081019190915260e00190565b6001600160a01b039889168152968816602088015260408701959095526060860193909352608085019190915260a084015290921660c082015260e08101919091526101000190565b6001600160a01b03929092168252602082015260400190565b901515815260200190565b6020808252600a908201526937b7363c9030b236b4b760b11b604082015260600190565b6020808252601690820152756d6967726174696f6e20616c726561647920646f6e6560501b604082015260600190565b6020808252601690820152751b5a59dc985d1a5bdb881b9bdd08191bdb99481e595d60521b604082015260600190565b90815260200190565b6001600160a01b0381168114610a1f57600080fd5b5056fea26469706673582212202df3bbb524313e30694175157f7b34aac27d9055622c1cd95bf50131cabec9f864736f6c63430008000033",
  "immutableReferences": {},
  "source": "pragma solidity 0.8.0;\r\nimport '@openzeppelin/contracts/token/ERC20/ERC20.sol';\r\nimport '@uniswap/v2-periphery/contracts/interfaces/IUniswapV2Router02.sol';\r\nimport './IUniswapV2Pair.sol';\r\nimport './ChimpToken.sol';\r\n\r\ncontract LiquidityMigrator {\r\n  IUniswapV2Router02 public router;\r\n  IUniswapV2Pair public pair;\r\n  IUniswapV2Router02 public routerFork;\r\n  IUniswapV2Pair public pairFork;\r\n  ChimpToken public chimpToken;\r\n  address public admin;\r\n  mapping(address => uint) public unclaimedBalances;\r\n  bool public migrationDone;\r\n\r\n  constructor(address _router, address _pair, address _routerFork, address _pairFork, address _chimpToken) public {\r\n    router = IUniswapV2Router02(router);\r\n    pair = IUniswapV2Pair(_pair);\r\n    routerFork = IUniswapV2Router02(_routerFork);\r\n    pairFork = IUniswapV2Pair(_pairFork);\r\n    chimpToken = ChimpToken(_chimpToken);\r\n    admin = msg.sender;\r\n  }\r\n  function deposit(uint amount) external {\r\n    require(migrationDone = false, 'migration already done');\r\n    pair.transferFrom(msg.sender, address(this), amount);\r\n    chimpToken.mint(msg.sender, amount);\r\n    unclaimedBalances[msg.sender] += amount;\r\n  }\r\n\r\n  function migrate() external {\r\n    require(msg.sender == admin, 'only admin');\r\n    require(migrationDone == false, 'migration already done');\r\n\r\n    IERC20 token0 = IERC20(pair.token0());\r\n    IERC20 token1 = IERC20(pair.token1());\r\n    uint totalBalance = pair.balanceOf(address(this));\r\n    router.removeLiquidity(address(token0), address(token1), totalBalance, 0, 0, address(this), block.timestamp);\r\n    uint token0Balance = token0.balanceOf(address(this));\r\n    uint token1Balance = token1.balanceOf(address(this));\r\n    token0.approve(address(routerFork), token0Balance);\r\n    token1.approve(address(routerFork), token1Balance);\r\n    routerFork.addLiquidity(address(token0), address(token1), token0Balance, token1Balance,token0Balance, token1Balance, address(this), block.timestamp);\r\n\r\n    migrationDone = true;\r\n  }\r\n\r\n  function claimLptokens() external {\r\n    require(unclaimedBalances[msg.sender] >= 0, 'no unclaimed balance');\r\n    require(migrationDone == true, 'migration not done yet');\r\n    uint amountToSend = unclaimedBalances[msg.sender];\r\n    unclaimedBalances[msg.sender] = 0;\r\n    pairFork.transfer(msg.sender, amountToSend);\r\n  }\r\n}\r\n",
  "sourcePath": "C:/Users/jjrab/OneDrive/Desktop/Dappdev/uniswap-fork/migrator/contracts/LiquidityMigrator.sol",
  "compiler": {
    "name": "solc",
    "version": "0.8.0+commit.c7dfd78e.Emscripten.clang"
  },
  "schemaVersion": "3.3.4",
  "updatedAt": "2021-03-27T14:14:02.916Z",
  "devdoc": {
    "kind": "dev",
    "methods": {},
    "version": 1
  },
  "userdoc": {
    "kind": "user",
    "methods": {},
    "version": 1
  }
}